{
	"data": {
		"bytecode": {
			"linkReferences": {},
			"object": "6080604052602a6000806101000a81548160ff021916908360ff16021790555061ea60600060016101000a81548167ffffffffffffffff021916908367ffffffffffffffff160217905550620f4240600155609c600260006101000a81548161ffff021916908360010b61ffff160217905550620dbba06002806101000a8154816effffffffffffffffffffffffffffff0219169083600e0b6effffffffffffffffffffffffffffff160217905550624c4b4060035560008054906101000a900460ff1660ff16600460006101000a81548167ffffffffffffffff021916908367ffffffffffffffff160217905550600154600460086101000a81548167ffffffffffffffff021916908367ffffffffffffffff16021790555060028054906101000a9004600e0b600e0b60055560015460065534801561013f57600080fd5b5061025b8061014f6000396000f3fe608060405234801561001057600080fd5b50600436106100575760003560e01c806302b037a71461005c5780632b74311b1461007a5780639fe40a1714610098578063af489aa6146100c8578063ed4885e5146100e6575b600080fd5b610064610104565b60405161007191906101c8565b60405180910390f35b61008261011e565b60405161008f91906101c8565b60405180910390f35b6100b260048036038101906100ad9190610166565b610138565b6040516100bf91906101c8565b60405180910390f35b6100d0610145565b6040516100dd91906101ad565b60405180910390f35b6100ee61014b565b6040516100fb91906101ad565b60405180910390f35b600460009054906101000a900467ffffffffffffffff1681565b600460089054906101000a900467ffffffffffffffff1681565b60008160ff169050919050565b60065481565b60055481565b6000813590506101608161020e565b92915050565b60006020828403121561017857600080fd5b600061018684828501610151565b91505092915050565b610198816101e3565b82525050565b6101a7816101ed565b82525050565b60006020820190506101c2600083018461018f565b92915050565b60006020820190506101dd600083018461019e565b92915050565b6000819050919050565b600067ffffffffffffffff82169050919050565b600060ff82169050919050565b61021781610201565b811461022257600080fd5b5056fea26469706673582212201c340145dfd78c37249e3a7fb5d2be7319a66e6cff6caf122d748ee85eb3f49a64736f6c63430008000033",
			"opcodes": "PUSH1 0x80 PUSH1 0x40 MSTORE PUSH1 0x2A PUSH1 0x0 DUP1 PUSH2 0x100 EXP DUP2 SLOAD DUP2 PUSH1 0xFF MUL NOT AND SWAP1 DUP4 PUSH1 0xFF AND MUL OR SWAP1 SSTORE POP PUSH2 0xEA60 PUSH1 0x0 PUSH1 0x1 PUSH2 0x100 EXP DUP2 SLOAD DUP2 PUSH8 0xFFFFFFFFFFFFFFFF MUL NOT AND SWAP1 DUP4 PUSH8 0xFFFFFFFFFFFFFFFF AND MUL OR SWAP1 SSTORE POP PUSH3 0xF4240 PUSH1 0x1 SSTORE PUSH1 0x9C PUSH1 0x2 PUSH1 0x0 PUSH2 0x100 EXP DUP2 SLOAD DUP2 PUSH2 0xFFFF MUL NOT AND SWAP1 DUP4 PUSH1 0x1 SIGNEXTEND PUSH2 0xFFFF AND MUL OR SWAP1 SSTORE POP PUSH3 0xDBBA0 PUSH1 0x2 DUP1 PUSH2 0x100 EXP DUP2 SLOAD DUP2 PUSH15 0xFFFFFFFFFFFFFFFFFFFFFFFFFFFFFF MUL NOT AND SWAP1 DUP4 PUSH1 0xE SIGNEXTEND PUSH15 0xFFFFFFFFFFFFFFFFFFFFFFFFFFFFFF AND MUL OR SWAP1 SSTORE POP PUSH3 0x4C4B40 PUSH1 0x3 SSTORE PUSH1 0x0 DUP1 SLOAD SWAP1 PUSH2 0x100 EXP SWAP1 DIV PUSH1 0xFF AND PUSH1 0xFF AND PUSH1 0x4 PUSH1 0x0 PUSH2 0x100 EXP DUP2 SLOAD DUP2 PUSH8 0xFFFFFFFFFFFFFFFF MUL NOT AND SWAP1 DUP4 PUSH8 0xFFFFFFFFFFFFFFFF AND MUL OR SWAP1 SSTORE POP PUSH1 0x1 SLOAD PUSH1 0x4 PUSH1 0x8 PUSH2 0x100 EXP DUP2 SLOAD DUP2 PUSH8 0xFFFFFFFFFFFFFFFF MUL NOT AND SWAP1 DUP4 PUSH8 0xFFFFFFFFFFFFFFFF AND MUL OR SWAP1 SSTORE POP PUSH1 0x2 DUP1 SLOAD SWAP1 PUSH2 0x100 EXP SWAP1 DIV PUSH1 0xE SIGNEXTEND PUSH1 0xE SIGNEXTEND PUSH1 0x5 SSTORE PUSH1 0x1 SLOAD PUSH1 0x6 SSTORE CALLVALUE DUP1 ISZERO PUSH2 0x13F JUMPI PUSH1 0x0 DUP1 REVERT JUMPDEST POP PUSH2 0x25B DUP1 PUSH2 0x14F PUSH1 0x0 CODECOPY PUSH1 0x0 RETURN INVALID PUSH1 0x80 PUSH1 0x40 MSTORE CALLVALUE DUP1 ISZERO PUSH2 0x10 JUMPI PUSH1 0x0 DUP1 REVERT JUMPDEST POP PUSH1 0x4 CALLDATASIZE LT PUSH2 0x57 JUMPI PUSH1 0x0 CALLDATALOAD PUSH1 0xE0 SHR DUP1 PUSH4 0x2B037A7 EQ PUSH2 0x5C JUMPI DUP1 PUSH4 0x2B74311B EQ PUSH2 0x7A JUMPI DUP1 PUSH4 0x9FE40A17 EQ PUSH2 0x98 JUMPI DUP1 PUSH4 0xAF489AA6 EQ PUSH2 0xC8 JUMPI DUP1 PUSH4 0xED4885E5 EQ PUSH2 0xE6 JUMPI JUMPDEST PUSH1 0x0 DUP1 REVERT JUMPDEST PUSH2 0x64 PUSH2 0x104 JUMP JUMPDEST PUSH1 0x40 MLOAD PUSH2 0x71 SWAP2 SWAP1 PUSH2 0x1C8 JUMP JUMPDEST PUSH1 0x40 MLOAD DUP1 SWAP2 SUB SWAP1 RETURN JUMPDEST PUSH2 0x82 PUSH2 0x11E JUMP JUMPDEST PUSH1 0x40 MLOAD PUSH2 0x8F SWAP2 SWAP1 PUSH2 0x1C8 JUMP JUMPDEST PUSH1 0x40 MLOAD DUP1 SWAP2 SUB SWAP1 RETURN JUMPDEST PUSH2 0xB2 PUSH1 0x4 DUP1 CALLDATASIZE SUB DUP2 ADD SWAP1 PUSH2 0xAD SWAP2 SWAP1 PUSH2 0x166 JUMP JUMPDEST PUSH2 0x138 JUMP JUMPDEST PUSH1 0x40 MLOAD PUSH2 0xBF SWAP2 SWAP1 PUSH2 0x1C8 JUMP JUMPDEST PUSH1 0x40 MLOAD DUP1 SWAP2 SUB SWAP1 RETURN JUMPDEST PUSH2 0xD0 PUSH2 0x145 JUMP JUMPDEST PUSH1 0x40 MLOAD PUSH2 0xDD SWAP2 SWAP1 PUSH2 0x1AD JUMP JUMPDEST PUSH1 0x40 MLOAD DUP1 SWAP2 SUB SWAP1 RETURN JUMPDEST PUSH2 0xEE PUSH2 0x14B JUMP JUMPDEST PUSH1 0x40 MLOAD PUSH2 0xFB SWAP2 SWAP1 PUSH2 0x1AD JUMP JUMPDEST PUSH1 0x40 MLOAD DUP1 SWAP2 SUB SWAP1 RETURN JUMPDEST PUSH1 0x4 PUSH1 0x0 SWAP1 SLOAD SWAP1 PUSH2 0x100 EXP SWAP1 DIV PUSH8 0xFFFFFFFFFFFFFFFF AND DUP2 JUMP JUMPDEST PUSH1 0x4 PUSH1 0x8 SWAP1 SLOAD SWAP1 PUSH2 0x100 EXP SWAP1 DIV PUSH8 0xFFFFFFFFFFFFFFFF AND DUP2 JUMP JUMPDEST PUSH1 0x0 DUP2 PUSH1 0xFF AND SWAP1 POP SWAP2 SWAP1 POP JUMP JUMPDEST PUSH1 0x6 SLOAD DUP2 JUMP JUMPDEST PUSH1 0x5 SLOAD DUP2 JUMP JUMPDEST PUSH1 0x0 DUP2 CALLDATALOAD SWAP1 POP PUSH2 0x160 DUP2 PUSH2 0x20E JUMP JUMPDEST SWAP3 SWAP2 POP POP JUMP JUMPDEST PUSH1 0x0 PUSH1 0x20 DUP3 DUP5 SUB SLT ISZERO PUSH2 0x178 JUMPI PUSH1 0x0 DUP1 REVERT JUMPDEST PUSH1 0x0 PUSH2 0x186 DUP5 DUP3 DUP6 ADD PUSH2 0x151 JUMP JUMPDEST SWAP2 POP POP SWAP3 SWAP2 POP POP JUMP JUMPDEST PUSH2 0x198 DUP2 PUSH2 0x1E3 JUMP JUMPDEST DUP3 MSTORE POP POP JUMP JUMPDEST PUSH2 0x1A7 DUP2 PUSH2 0x1ED JUMP JUMPDEST DUP3 MSTORE POP POP JUMP JUMPDEST PUSH1 0x0 PUSH1 0x20 DUP3 ADD SWAP1 POP PUSH2 0x1C2 PUSH1 0x0 DUP4 ADD DUP5 PUSH2 0x18F JUMP JUMPDEST SWAP3 SWAP2 POP POP JUMP JUMPDEST PUSH1 0x0 PUSH1 0x20 DUP3 ADD SWAP1 POP PUSH2 0x1DD PUSH1 0x0 DUP4 ADD DUP5 PUSH2 0x19E JUMP JUMPDEST SWAP3 SWAP2 POP POP JUMP JUMPDEST PUSH1 0x0 DUP2 SWAP1 POP SWAP2 SWAP1 POP JUMP JUMPDEST PUSH1 0x0 PUSH8 0xFFFFFFFFFFFFFFFF DUP3 AND SWAP1 POP SWAP2 SWAP1 POP JUMP JUMPDEST PUSH1 0x0 PUSH1 0xFF DUP3 AND SWAP1 POP SWAP2 SWAP1 POP JUMP JUMPDEST PUSH2 0x217 DUP2 PUSH2 0x201 JUMP JUMPDEST DUP2 EQ PUSH2 0x222 JUMPI PUSH1 0x0 DUP1 REVERT JUMPDEST POP JUMP INVALID LOG2 PUSH5 0x6970667358 0x22 SLT KECCAK256 SHR CALLVALUE ADD GASLIMIT 0xDF 0xD7 DUP13 CALLDATACOPY 0x24 SWAP15 GASPRICE PUSH32 0xB5D2BE7319A66E6CFF6CAF122D748EE85EB3F49A64736F6C6343000800003300 "
		},
		"gasEstimates": {
			"creation": {
				"codeDepositCost": "120600",
				"executionCost": "208889",
				"totalCost": "329489"
			},
			"external": {
				"casteo_1()": "1149",
				"casteo_2()": "1221",
				"casteo_4()": "1195",
				"casteo_5()": "1173",
				"convertir(uint8)": "642"
			}
		},
		"methodIdentifiers": {
			"casteo_1()": "02b037a7",
			"casteo_2()": "2b74311b",
			"casteo_4()": "ed4885e5",
			"casteo_5()": "af489aa6",
			"convertir(uint8)": "9fe40a17"
		}
	},
	"abi": [
		{
			"inputs": [],
			"name": "casteo_1",
			"outputs": [
				{
					"internalType": "uint64",
					"name": "",
					"type": "uint64"
				}
			],
			"stateMutability": "view",
			"type": "function"
		},
		{
			"inputs": [],
			"name": "casteo_2",
			"outputs": [
				{
					"internalType": "uint64",
					"name": "",
					"type": "uint64"
				}
			],
			"stateMutability": "view",
			"type": "function"
		},
		{
			"inputs": [],
			"name": "casteo_4",
			"outputs": [
				{
					"internalType": "int256",
					"name": "",
					"type": "int256"
				}
			],
			"stateMutability": "view",
			"type": "function"
		},
		{
			"inputs": [],
			"name": "casteo_5",
			"outputs": [
				{
					"internalType": "int256",
					"name": "",
					"type": "int256"
				}
			],
			"stateMutability": "view",
			"type": "function"
		},
		{
			"inputs": [
				{
					"internalType": "uint8",
					"name": "_k",
					"type": "uint8"
				}
			],
			"name": "convertir",
			"outputs": [
				{
					"internalType": "uint64",
					"name": "",
					"type": "uint64"
				}
			],
			"stateMutability": "pure",
			"type": "function"
		}
	]
}