{
	"data": {
		"bytecode": {
			"linkReferences": {},
			"object": "608060405242600055603c600155611c206002556241eb0060035562093a8060045534801561002d57600080fd5b5061022b8061003d6000396000f3fe608060405234801561001057600080fd5b50600436106100935760003560e01c80635a9606a4116100665780635a9606a414610110578063806c4f1d1461012e5780639c683c381461014c578063e8b1ed291461016a578063f9176f091461018857610093565b8063172f11fc14610098578063183289fc146100b65780631a61bae4146100d45780634f0cea83146100f2575b600080fd5b6100a06101a6565b6040518082815260200191505060405180910390f35b6100be6101ac565b6040518082815260200191505060405180910390f35b6100dc6101b2565b6040518082815260200191505060405180910390f35b6100fa6101bd565b6040518082815260200191505060405180910390f35b6101186101c3565b6040518082815260200191505060405180910390f35b6101366101c9565b6040518082815260200191505060405180910390f35b6101546101d6565b6040518082815260200191505060405180910390f35b6101726101e3565b6040518082815260200191505060405180910390f35b6101906101e9565b6040518082815260200191505060405180910390f35b60015481565b60045481565b600060324201905090565b60035481565b60005481565b600062093a804201905090565b60006203f4804201905090565b60025481565b6000610e10420190509056fea264697066735822122032e2bfc0e1e0f9bfd590fe70a84d56fb575cb45d1edfde59a254911a7f6f15f264736f6c63430006000033",
			"opcodes": "PUSH1 0x80 PUSH1 0x40 MSTORE TIMESTAMP PUSH1 0x0 SSTORE PUSH1 0x3C PUSH1 0x1 SSTORE PUSH2 0x1C20 PUSH1 0x2 SSTORE PUSH3 0x41EB00 PUSH1 0x3 SSTORE PUSH3 0x93A80 PUSH1 0x4 SSTORE CALLVALUE DUP1 ISZERO PUSH2 0x2D JUMPI PUSH1 0x0 DUP1 REVERT JUMPDEST POP PUSH2 0x22B DUP1 PUSH2 0x3D PUSH1 0x0 CODECOPY PUSH1 0x0 RETURN INVALID PUSH1 0x80 PUSH1 0x40 MSTORE CALLVALUE DUP1 ISZERO PUSH2 0x10 JUMPI PUSH1 0x0 DUP1 REVERT JUMPDEST POP PUSH1 0x4 CALLDATASIZE LT PUSH2 0x93 JUMPI PUSH1 0x0 CALLDATALOAD PUSH1 0xE0 SHR DUP1 PUSH4 0x5A9606A4 GT PUSH2 0x66 JUMPI DUP1 PUSH4 0x5A9606A4 EQ PUSH2 0x110 JUMPI DUP1 PUSH4 0x806C4F1D EQ PUSH2 0x12E JUMPI DUP1 PUSH4 0x9C683C38 EQ PUSH2 0x14C JUMPI DUP1 PUSH4 0xE8B1ED29 EQ PUSH2 0x16A JUMPI DUP1 PUSH4 0xF9176F09 EQ PUSH2 0x188 JUMPI PUSH2 0x93 JUMP JUMPDEST DUP1 PUSH4 0x172F11FC EQ PUSH2 0x98 JUMPI DUP1 PUSH4 0x183289FC EQ PUSH2 0xB6 JUMPI DUP1 PUSH4 0x1A61BAE4 EQ PUSH2 0xD4 JUMPI DUP1 PUSH4 0x4F0CEA83 EQ PUSH2 0xF2 JUMPI JUMPDEST PUSH1 0x0 DUP1 REVERT JUMPDEST PUSH2 0xA0 PUSH2 0x1A6 JUMP JUMPDEST PUSH1 0x40 MLOAD DUP1 DUP3 DUP2 MSTORE PUSH1 0x20 ADD SWAP2 POP POP PUSH1 0x40 MLOAD DUP1 SWAP2 SUB SWAP1 RETURN JUMPDEST PUSH2 0xBE PUSH2 0x1AC JUMP JUMPDEST PUSH1 0x40 MLOAD DUP1 DUP3 DUP2 MSTORE PUSH1 0x20 ADD SWAP2 POP POP PUSH1 0x40 MLOAD DUP1 SWAP2 SUB SWAP1 RETURN JUMPDEST PUSH2 0xDC PUSH2 0x1B2 JUMP JUMPDEST PUSH1 0x40 MLOAD DUP1 DUP3 DUP2 MSTORE PUSH1 0x20 ADD SWAP2 POP POP PUSH1 0x40 MLOAD DUP1 SWAP2 SUB SWAP1 RETURN JUMPDEST PUSH2 0xFA PUSH2 0x1BD JUMP JUMPDEST PUSH1 0x40 MLOAD DUP1 DUP3 DUP2 MSTORE PUSH1 0x20 ADD SWAP2 POP POP PUSH1 0x40 MLOAD DUP1 SWAP2 SUB SWAP1 RETURN JUMPDEST PUSH2 0x118 PUSH2 0x1C3 JUMP JUMPDEST PUSH1 0x40 MLOAD DUP1 DUP3 DUP2 MSTORE PUSH1 0x20 ADD SWAP2 POP POP PUSH1 0x40 MLOAD DUP1 SWAP2 SUB SWAP1 RETURN JUMPDEST PUSH2 0x136 PUSH2 0x1C9 JUMP JUMPDEST PUSH1 0x40 MLOAD DUP1 DUP3 DUP2 MSTORE PUSH1 0x20 ADD SWAP2 POP POP PUSH1 0x40 MLOAD DUP1 SWAP2 SUB SWAP1 RETURN JUMPDEST PUSH2 0x154 PUSH2 0x1D6 JUMP JUMPDEST PUSH1 0x40 MLOAD DUP1 DUP3 DUP2 MSTORE PUSH1 0x20 ADD SWAP2 POP POP PUSH1 0x40 MLOAD DUP1 SWAP2 SUB SWAP1 RETURN JUMPDEST PUSH2 0x172 PUSH2 0x1E3 JUMP JUMPDEST PUSH1 0x40 MLOAD DUP1 DUP3 DUP2 MSTORE PUSH1 0x20 ADD SWAP2 POP POP PUSH1 0x40 MLOAD DUP1 SWAP2 SUB SWAP1 RETURN JUMPDEST PUSH2 0x190 PUSH2 0x1E9 JUMP JUMPDEST PUSH1 0x40 MLOAD DUP1 DUP3 DUP2 MSTORE PUSH1 0x20 ADD SWAP2 POP POP PUSH1 0x40 MLOAD DUP1 SWAP2 SUB SWAP1 RETURN JUMPDEST PUSH1 0x1 SLOAD DUP2 JUMP JUMPDEST PUSH1 0x4 SLOAD DUP2 JUMP JUMPDEST PUSH1 0x0 PUSH1 0x32 TIMESTAMP ADD SWAP1 POP SWAP1 JUMP JUMPDEST PUSH1 0x3 SLOAD DUP2 JUMP JUMPDEST PUSH1 0x0 SLOAD DUP2 JUMP JUMPDEST PUSH1 0x0 PUSH3 0x93A80 TIMESTAMP ADD SWAP1 POP SWAP1 JUMP JUMPDEST PUSH1 0x0 PUSH3 0x3F480 TIMESTAMP ADD SWAP1 POP SWAP1 JUMP JUMPDEST PUSH1 0x2 SLOAD DUP2 JUMP JUMPDEST PUSH1 0x0 PUSH2 0xE10 TIMESTAMP ADD SWAP1 POP SWAP1 JUMP INVALID LOG2 PUSH5 0x6970667358 0x22 SLT KECCAK256 ORIGIN 0xE2 0xBF 0xC0 0xE1 0xE0 0xF9 0xBF 0xD5 SWAP1 INVALID PUSH17 0xA84D56FB575CB45D1EDFDE59A254911A7F PUSH16 0x15F264736F6C63430006000033000000 "
		},
		"gasEstimates": {
			"creation": {
				"codeDepositCost": "111000",
				"executionCost": "100188",
				"totalCost": "211188"
			},
			"external": {
				"cincuenta_dias()": "1072",
				"dos_horas()": "1071",
				"masDias()": "262",
				"masHoras()": "306",
				"masSegundos()": "263",
				"masSemanas()": "240",
				"tiempo_actual()": "1005",
				"un_minuto()": "1006",
				"una_semana()": "1028"
			}
		},
		"methodIdentifiers": {
			"cincuenta_dias()": "4f0cea83",
			"dos_horas()": "e8b1ed29",
			"masDias()": "9c683c38",
			"masHoras()": "f9176f09",
			"masSegundos()": "1a61bae4",
			"masSemanas()": "806c4f1d",
			"tiempo_actual()": "5a9606a4",
			"un_minuto()": "172f11fc",
			"una_semana()": "183289fc"
		}
	},
	"abi": [
		{
			"inputs": [],
			"name": "cincuenta_dias",
			"outputs": [
				{
					"internalType": "uint256",
					"name": "",
					"type": "uint256"
				}
			],
			"stateMutability": "view",
			"type": "function"
		},
		{
			"inputs": [],
			"name": "dos_horas",
			"outputs": [
				{
					"internalType": "uint256",
					"name": "",
					"type": "uint256"
				}
			],
			"stateMutability": "view",
			"type": "function"
		},
		{
			"inputs": [],
			"name": "masDias",
			"outputs": [
				{
					"internalType": "uint256",
					"name": "",
					"type": "uint256"
				}
			],
			"stateMutability": "view",
			"type": "function"
		},
		{
			"inputs": [],
			"name": "masHoras",
			"outputs": [
				{
					"internalType": "uint256",
					"name": "",
					"type": "uint256"
				}
			],
			"stateMutability": "view",
			"type": "function"
		},
		{
			"inputs": [],
			"name": "masSegundos",
			"outputs": [
				{
					"internalType": "uint256",
					"name": "",
					"type": "uint256"
				}
			],
			"stateMutability": "view",
			"type": "function"
		},
		{
			"inputs": [],
			"name": "masSemanas",
			"outputs": [
				{
					"internalType": "uint256",
					"name": "",
					"type": "uint256"
				}
			],
			"stateMutability": "view",
			"type": "function"
		},
		{
			"inputs": [],
			"name": "tiempo_actual",
			"outputs": [
				{
					"internalType": "uint256",
					"name": "",
					"type": "uint256"
				}
			],
			"stateMutability": "view",
			"type": "function"
		},
		{
			"inputs": [],
			"name": "un_minuto",
			"outputs": [
				{
					"internalType": "uint256",
					"name": "",
					"type": "uint256"
				}
			],
			"stateMutability": "view",
			"type": "function"
		},
		{
			"inputs": [],
			"name": "una_semana",
			"outputs": [
				{
					"internalType": "uint256",
					"name": "",
					"type": "uint256"
				}
			],
			"stateMutability": "view",
			"type": "function"
		}
	]
}