{
	"data": {
		"bytecode": {
			"linkReferences": {},
			"object": "608060405234801561001057600080fd5b5061069d806100206000396000f3fe608060405234801561001057600080fd5b506004361061004c5760003560e01c8063698cc48614610051578063a16b103c1461006d578063b6b2ba4614610077578063cff01a1914610093575b600080fd5b61006b60048036038101906100669190610293565b6100af565b005b610075610120565b005b610091600480360381019061008c9190610293565b61014e565b005b6100ad60048036038101906100a8919061024a565b61018b565b005b60008282336040516020016100c6939291906103b4565b6040516020818303038152906040528051906020012090507f346531129c2fec3012d8c533fc369fd64078ad2ecf1c54fd5998131bb00472aa83833384604051610113949392919061043f565b60405180910390a1505050565b7f827a2cf97d4e0a00f930d250d1afdf463755816b12c33f1790cbd88a3d4fc43c60405160405180910390a1565b7f2abcdd8402d13cddfdae95d2581c51409054966b88de81287628c3e06235d8b0828260405161017f92919061040f565b60405180910390a15050565b7fbb9feca183dbd63d27399e01607802b8663d1c6d1b7a331ed919063ea22675a2816040516101ba91906103ed565b60405180910390a150565b60006101d86101d3846104b0565b61048b565b9050828152602081018484840111156101f4576101f3610623565b5b6101ff84828561054e565b509392505050565b600082601f83011261021c5761021b61061e565b5b813561022c8482602086016101c5565b91505092915050565b60008135905061024481610650565b92915050565b6000602082840312156102605761025f61062d565b5b600082013567ffffffffffffffff81111561027e5761027d610628565b5b61028a84828501610207565b91505092915050565b600080604083850312156102aa576102a961062d565b5b600083013567ffffffffffffffff8111156102c8576102c7610628565b5b6102d485828601610207565b92505060206102e585828601610235565b9150509250929050565b6102f881610508565b82525050565b61030f61030a82610508565b6105c1565b82525050565b61031e8161051a565b82525050565b600061032f826104e1565b61033981856104ec565b935061034981856020860161055d565b61035281610632565b840191505092915050565b6000610368826104e1565b61037281856104fd565b935061038281856020860161055d565b80840191505092915050565b61039781610544565b82525050565b6103ae6103a982610544565b6105e5565b82525050565b60006103c0828661035d565b91506103cc828561039d565b6020820191506103dc82846102fe565b601482019150819050949350505050565b600060208201905081810360008301526104078184610324565b905092915050565b600060408201905081810360008301526104298185610324565b9050610438602083018461038e565b9392505050565b600060808201905081810360008301526104598187610324565b9050610468602083018661038e565b61047560408301856102ef565b6104826060830184610315565b95945050505050565b60006104956104a6565b90506104a18282610590565b919050565b6000604051905090565b600067ffffffffffffffff8211156104cb576104ca6105ef565b5b6104d482610632565b9050602081019050919050565b600081519050919050565b600082825260208201905092915050565b600081905092915050565b600061051382610524565b9050919050565b6000819050919050565b600073ffffffffffffffffffffffffffffffffffffffff82169050919050565b6000819050919050565b82818337600083830152505050565b60005b8381101561057b578082015181840152602081019050610560565b8381111561058a576000848401525b50505050565b61059982610632565b810181811067ffffffffffffffff821117156105b8576105b76105ef565b5b80604052505050565b60006105cc826105d3565b9050919050565b60006105de82610643565b9050919050565b6000819050919050565b7f4e487b7100000000000000000000000000000000000000000000000000000000600052604160045260246000fd5b600080fd5b600080fd5b600080fd5b600080fd5b6000601f19601f8301169050919050565b60008160601b9050919050565b61065981610544565b811461066457600080fd5b5056fea2646970667358221220cf636479d40080eec5e6c176073a25638d99b2cc1e08edc20483d39f02cb473064736f6c63430008070033",
			"opcodes": "PUSH1 0x80 PUSH1 0x40 MSTORE CALLVALUE DUP1 ISZERO PUSH2 0x10 JUMPI PUSH1 0x0 DUP1 REVERT JUMPDEST POP PUSH2 0x69D DUP1 PUSH2 0x20 PUSH1 0x0 CODECOPY PUSH1 0x0 RETURN INVALID PUSH1 0x80 PUSH1 0x40 MSTORE CALLVALUE DUP1 ISZERO PUSH2 0x10 JUMPI PUSH1 0x0 DUP1 REVERT JUMPDEST POP PUSH1 0x4 CALLDATASIZE LT PUSH2 0x4C JUMPI PUSH1 0x0 CALLDATALOAD PUSH1 0xE0 SHR DUP1 PUSH4 0x698CC486 EQ PUSH2 0x51 JUMPI DUP1 PUSH4 0xA16B103C EQ PUSH2 0x6D JUMPI DUP1 PUSH4 0xB6B2BA46 EQ PUSH2 0x77 JUMPI DUP1 PUSH4 0xCFF01A19 EQ PUSH2 0x93 JUMPI JUMPDEST PUSH1 0x0 DUP1 REVERT JUMPDEST PUSH2 0x6B PUSH1 0x4 DUP1 CALLDATASIZE SUB DUP2 ADD SWAP1 PUSH2 0x66 SWAP2 SWAP1 PUSH2 0x293 JUMP JUMPDEST PUSH2 0xAF JUMP JUMPDEST STOP JUMPDEST PUSH2 0x75 PUSH2 0x120 JUMP JUMPDEST STOP JUMPDEST PUSH2 0x91 PUSH1 0x4 DUP1 CALLDATASIZE SUB DUP2 ADD SWAP1 PUSH2 0x8C SWAP2 SWAP1 PUSH2 0x293 JUMP JUMPDEST PUSH2 0x14E JUMP JUMPDEST STOP JUMPDEST PUSH2 0xAD PUSH1 0x4 DUP1 CALLDATASIZE SUB DUP2 ADD SWAP1 PUSH2 0xA8 SWAP2 SWAP1 PUSH2 0x24A JUMP JUMPDEST PUSH2 0x18B JUMP JUMPDEST STOP JUMPDEST PUSH1 0x0 DUP3 DUP3 CALLER PUSH1 0x40 MLOAD PUSH1 0x20 ADD PUSH2 0xC6 SWAP4 SWAP3 SWAP2 SWAP1 PUSH2 0x3B4 JUMP JUMPDEST PUSH1 0x40 MLOAD PUSH1 0x20 DUP2 DUP4 SUB SUB DUP2 MSTORE SWAP1 PUSH1 0x40 MSTORE DUP1 MLOAD SWAP1 PUSH1 0x20 ADD KECCAK256 SWAP1 POP PUSH32 0x346531129C2FEC3012D8C533FC369FD64078AD2ECF1C54FD5998131BB00472AA DUP4 DUP4 CALLER DUP5 PUSH1 0x40 MLOAD PUSH2 0x113 SWAP5 SWAP4 SWAP3 SWAP2 SWAP1 PUSH2 0x43F JUMP JUMPDEST PUSH1 0x40 MLOAD DUP1 SWAP2 SUB SWAP1 LOG1 POP POP POP JUMP JUMPDEST PUSH32 0x827A2CF97D4E0A00F930D250D1AFDF463755816B12C33F1790CBD88A3D4FC43C PUSH1 0x40 MLOAD PUSH1 0x40 MLOAD DUP1 SWAP2 SUB SWAP1 LOG1 JUMP JUMPDEST PUSH32 0x2ABCDD8402D13CDDFDAE95D2581C51409054966B88DE81287628C3E06235D8B0 DUP3 DUP3 PUSH1 0x40 MLOAD PUSH2 0x17F SWAP3 SWAP2 SWAP1 PUSH2 0x40F JUMP JUMPDEST PUSH1 0x40 MLOAD DUP1 SWAP2 SUB SWAP1 LOG1 POP POP JUMP JUMPDEST PUSH32 0xBB9FECA183DBD63D27399E01607802B8663D1C6D1B7A331ED919063EA22675A2 DUP2 PUSH1 0x40 MLOAD PUSH2 0x1BA SWAP2 SWAP1 PUSH2 0x3ED JUMP JUMPDEST PUSH1 0x40 MLOAD DUP1 SWAP2 SUB SWAP1 LOG1 POP JUMP JUMPDEST PUSH1 0x0 PUSH2 0x1D8 PUSH2 0x1D3 DUP5 PUSH2 0x4B0 JUMP JUMPDEST PUSH2 0x48B JUMP JUMPDEST SWAP1 POP DUP3 DUP2 MSTORE PUSH1 0x20 DUP2 ADD DUP5 DUP5 DUP5 ADD GT ISZERO PUSH2 0x1F4 JUMPI PUSH2 0x1F3 PUSH2 0x623 JUMP JUMPDEST JUMPDEST PUSH2 0x1FF DUP5 DUP3 DUP6 PUSH2 0x54E JUMP JUMPDEST POP SWAP4 SWAP3 POP POP POP JUMP JUMPDEST PUSH1 0x0 DUP3 PUSH1 0x1F DUP4 ADD SLT PUSH2 0x21C JUMPI PUSH2 0x21B PUSH2 0x61E JUMP JUMPDEST JUMPDEST DUP2 CALLDATALOAD PUSH2 0x22C DUP5 DUP3 PUSH1 0x20 DUP7 ADD PUSH2 0x1C5 JUMP JUMPDEST SWAP2 POP POP SWAP3 SWAP2 POP POP JUMP JUMPDEST PUSH1 0x0 DUP2 CALLDATALOAD SWAP1 POP PUSH2 0x244 DUP2 PUSH2 0x650 JUMP JUMPDEST SWAP3 SWAP2 POP POP JUMP JUMPDEST PUSH1 0x0 PUSH1 0x20 DUP3 DUP5 SUB SLT ISZERO PUSH2 0x260 JUMPI PUSH2 0x25F PUSH2 0x62D JUMP JUMPDEST JUMPDEST PUSH1 0x0 DUP3 ADD CALLDATALOAD PUSH8 0xFFFFFFFFFFFFFFFF DUP2 GT ISZERO PUSH2 0x27E JUMPI PUSH2 0x27D PUSH2 0x628 JUMP JUMPDEST JUMPDEST PUSH2 0x28A DUP5 DUP3 DUP6 ADD PUSH2 0x207 JUMP JUMPDEST SWAP2 POP POP SWAP3 SWAP2 POP POP JUMP JUMPDEST PUSH1 0x0 DUP1 PUSH1 0x40 DUP4 DUP6 SUB SLT ISZERO PUSH2 0x2AA JUMPI PUSH2 0x2A9 PUSH2 0x62D JUMP JUMPDEST JUMPDEST PUSH1 0x0 DUP4 ADD CALLDATALOAD PUSH8 0xFFFFFFFFFFFFFFFF DUP2 GT ISZERO PUSH2 0x2C8 JUMPI PUSH2 0x2C7 PUSH2 0x628 JUMP JUMPDEST JUMPDEST PUSH2 0x2D4 DUP6 DUP3 DUP7 ADD PUSH2 0x207 JUMP JUMPDEST SWAP3 POP POP PUSH1 0x20 PUSH2 0x2E5 DUP6 DUP3 DUP7 ADD PUSH2 0x235 JUMP JUMPDEST SWAP2 POP POP SWAP3 POP SWAP3 SWAP1 POP JUMP JUMPDEST PUSH2 0x2F8 DUP2 PUSH2 0x508 JUMP JUMPDEST DUP3 MSTORE POP POP JUMP JUMPDEST PUSH2 0x30F PUSH2 0x30A DUP3 PUSH2 0x508 JUMP JUMPDEST PUSH2 0x5C1 JUMP JUMPDEST DUP3 MSTORE POP POP JUMP JUMPDEST PUSH2 0x31E DUP2 PUSH2 0x51A JUMP JUMPDEST DUP3 MSTORE POP POP JUMP JUMPDEST PUSH1 0x0 PUSH2 0x32F DUP3 PUSH2 0x4E1 JUMP JUMPDEST PUSH2 0x339 DUP2 DUP6 PUSH2 0x4EC JUMP JUMPDEST SWAP4 POP PUSH2 0x349 DUP2 DUP6 PUSH1 0x20 DUP7 ADD PUSH2 0x55D JUMP JUMPDEST PUSH2 0x352 DUP2 PUSH2 0x632 JUMP JUMPDEST DUP5 ADD SWAP2 POP POP SWAP3 SWAP2 POP POP JUMP JUMPDEST PUSH1 0x0 PUSH2 0x368 DUP3 PUSH2 0x4E1 JUMP JUMPDEST PUSH2 0x372 DUP2 DUP6 PUSH2 0x4FD JUMP JUMPDEST SWAP4 POP PUSH2 0x382 DUP2 DUP6 PUSH1 0x20 DUP7 ADD PUSH2 0x55D JUMP JUMPDEST DUP1 DUP5 ADD SWAP2 POP POP SWAP3 SWAP2 POP POP JUMP JUMPDEST PUSH2 0x397 DUP2 PUSH2 0x544 JUMP JUMPDEST DUP3 MSTORE POP POP JUMP JUMPDEST PUSH2 0x3AE PUSH2 0x3A9 DUP3 PUSH2 0x544 JUMP JUMPDEST PUSH2 0x5E5 JUMP JUMPDEST DUP3 MSTORE POP POP JUMP JUMPDEST PUSH1 0x0 PUSH2 0x3C0 DUP3 DUP7 PUSH2 0x35D JUMP JUMPDEST SWAP2 POP PUSH2 0x3CC DUP3 DUP6 PUSH2 0x39D JUMP JUMPDEST PUSH1 0x20 DUP3 ADD SWAP2 POP PUSH2 0x3DC DUP3 DUP5 PUSH2 0x2FE JUMP JUMPDEST PUSH1 0x14 DUP3 ADD SWAP2 POP DUP2 SWAP1 POP SWAP5 SWAP4 POP POP POP POP JUMP JUMPDEST PUSH1 0x0 PUSH1 0x20 DUP3 ADD SWAP1 POP DUP2 DUP2 SUB PUSH1 0x0 DUP4 ADD MSTORE PUSH2 0x407 DUP2 DUP5 PUSH2 0x324 JUMP JUMPDEST SWAP1 POP SWAP3 SWAP2 POP POP JUMP JUMPDEST PUSH1 0x0 PUSH1 0x40 DUP3 ADD SWAP1 POP DUP2 DUP2 SUB PUSH1 0x0 DUP4 ADD MSTORE PUSH2 0x429 DUP2 DUP6 PUSH2 0x324 JUMP JUMPDEST SWAP1 POP PUSH2 0x438 PUSH1 0x20 DUP4 ADD DUP5 PUSH2 0x38E JUMP JUMPDEST SWAP4 SWAP3 POP POP POP JUMP JUMPDEST PUSH1 0x0 PUSH1 0x80 DUP3 ADD SWAP1 POP DUP2 DUP2 SUB PUSH1 0x0 DUP4 ADD MSTORE PUSH2 0x459 DUP2 DUP8 PUSH2 0x324 JUMP JUMPDEST SWAP1 POP PUSH2 0x468 PUSH1 0x20 DUP4 ADD DUP7 PUSH2 0x38E JUMP JUMPDEST PUSH2 0x475 PUSH1 0x40 DUP4 ADD DUP6 PUSH2 0x2EF JUMP JUMPDEST PUSH2 0x482 PUSH1 0x60 DUP4 ADD DUP5 PUSH2 0x315 JUMP JUMPDEST SWAP6 SWAP5 POP POP POP POP POP JUMP JUMPDEST PUSH1 0x0 PUSH2 0x495 PUSH2 0x4A6 JUMP JUMPDEST SWAP1 POP PUSH2 0x4A1 DUP3 DUP3 PUSH2 0x590 JUMP JUMPDEST SWAP2 SWAP1 POP JUMP JUMPDEST PUSH1 0x0 PUSH1 0x40 MLOAD SWAP1 POP SWAP1 JUMP JUMPDEST PUSH1 0x0 PUSH8 0xFFFFFFFFFFFFFFFF DUP3 GT ISZERO PUSH2 0x4CB JUMPI PUSH2 0x4CA PUSH2 0x5EF JUMP JUMPDEST JUMPDEST PUSH2 0x4D4 DUP3 PUSH2 0x632 JUMP JUMPDEST SWAP1 POP PUSH1 0x20 DUP2 ADD SWAP1 POP SWAP2 SWAP1 POP JUMP JUMPDEST PUSH1 0x0 DUP2 MLOAD SWAP1 POP SWAP2 SWAP1 POP JUMP JUMPDEST PUSH1 0x0 DUP3 DUP3 MSTORE PUSH1 0x20 DUP3 ADD SWAP1 POP SWAP3 SWAP2 POP POP JUMP JUMPDEST PUSH1 0x0 DUP2 SWAP1 POP SWAP3 SWAP2 POP POP JUMP JUMPDEST PUSH1 0x0 PUSH2 0x513 DUP3 PUSH2 0x524 JUMP JUMPDEST SWAP1 POP SWAP2 SWAP1 POP JUMP JUMPDEST PUSH1 0x0 DUP2 SWAP1 POP SWAP2 SWAP1 POP JUMP JUMPDEST PUSH1 0x0 PUSH20 0xFFFFFFFFFFFFFFFFFFFFFFFFFFFFFFFFFFFFFFFF DUP3 AND SWAP1 POP SWAP2 SWAP1 POP JUMP JUMPDEST PUSH1 0x0 DUP2 SWAP1 POP SWAP2 SWAP1 POP JUMP JUMPDEST DUP3 DUP2 DUP4 CALLDATACOPY PUSH1 0x0 DUP4 DUP4 ADD MSTORE POP POP POP JUMP JUMPDEST PUSH1 0x0 JUMPDEST DUP4 DUP2 LT ISZERO PUSH2 0x57B JUMPI DUP1 DUP3 ADD MLOAD DUP2 DUP5 ADD MSTORE PUSH1 0x20 DUP2 ADD SWAP1 POP PUSH2 0x560 JUMP JUMPDEST DUP4 DUP2 GT ISZERO PUSH2 0x58A JUMPI PUSH1 0x0 DUP5 DUP5 ADD MSTORE JUMPDEST POP POP POP POP JUMP JUMPDEST PUSH2 0x599 DUP3 PUSH2 0x632 JUMP JUMPDEST DUP2 ADD DUP2 DUP2 LT PUSH8 0xFFFFFFFFFFFFFFFF DUP3 GT OR ISZERO PUSH2 0x5B8 JUMPI PUSH2 0x5B7 PUSH2 0x5EF JUMP JUMPDEST JUMPDEST DUP1 PUSH1 0x40 MSTORE POP POP POP JUMP JUMPDEST PUSH1 0x0 PUSH2 0x5CC DUP3 PUSH2 0x5D3 JUMP JUMPDEST SWAP1 POP SWAP2 SWAP1 POP JUMP JUMPDEST PUSH1 0x0 PUSH2 0x5DE DUP3 PUSH2 0x643 JUMP JUMPDEST SWAP1 POP SWAP2 SWAP1 POP JUMP JUMPDEST PUSH1 0x0 DUP2 SWAP1 POP SWAP2 SWAP1 POP JUMP JUMPDEST PUSH32 0x4E487B7100000000000000000000000000000000000000000000000000000000 PUSH1 0x0 MSTORE PUSH1 0x41 PUSH1 0x4 MSTORE PUSH1 0x24 PUSH1 0x0 REVERT JUMPDEST PUSH1 0x0 DUP1 REVERT JUMPDEST PUSH1 0x0 DUP1 REVERT JUMPDEST PUSH1 0x0 DUP1 REVERT JUMPDEST PUSH1 0x0 DUP1 REVERT JUMPDEST PUSH1 0x0 PUSH1 0x1F NOT PUSH1 0x1F DUP4 ADD AND SWAP1 POP SWAP2 SWAP1 POP JUMP JUMPDEST PUSH1 0x0 DUP2 PUSH1 0x60 SHL SWAP1 POP SWAP2 SWAP1 POP JUMP JUMPDEST PUSH2 0x659 DUP2 PUSH2 0x544 JUMP JUMPDEST DUP2 EQ PUSH2 0x664 JUMPI PUSH1 0x0 DUP1 REVERT JUMPDEST POP JUMP INVALID LOG2 PUSH5 0x6970667358 0x22 SLT KECCAK256 0xCF PUSH4 0x6479D400 DUP1 0xEE 0xC5 0xE6 0xC1 PUSH23 0x73A25638D99B2CC1E08EDC20483D39F02CB473064736F PUSH13 0x63430008070033000000000000 "
		},
		"gasEstimates": {
			"creation": {
				"codeDepositCost": "338600",
				"executionCost": "374",
				"totalCost": "338974"
			},
			"external": {
				"abortarFunction()": "921",
				"emitir1(string)": "infinite",
				"emitir2(string,uint256)": "infinite",
				"emitir3(string,uint256)": "infinite"
			}
		},
		"methodIdentifiers": {
			"abortarFunction()": "a16b103c",
			"emitir1(string)": "cff01a19",
			"emitir2(string,uint256)": "b6b2ba46",
			"emitir3(string,uint256)": "698cc486"
		}
	},
	"abi": [
		{
			"anonymous": false,
			"inputs": [],
			"name": "abortar",
			"type": "event"
		},
		{
			"anonymous": false,
			"inputs": [
				{
					"indexed": false,
					"internalType": "string",
					"name": "_nombrePersona",
					"type": "string"
				}
			],
			"name": "evento1",
			"type": "event"
		},
		{
			"anonymous": false,
			"inputs": [
				{
					"indexed": false,
					"internalType": "string",
					"name": "_nombrePersona",
					"type": "string"
				},
				{
					"indexed": false,
					"internalType": "uint256",
					"name": "_edadPeersona",
					"type": "uint256"
				}
			],
			"name": "evento2",
			"type": "event"
		},
		{
			"anonymous": false,
			"inputs": [
				{
					"indexed": false,
					"internalType": "string",
					"name": "",
					"type": "string"
				},
				{
					"indexed": false,
					"internalType": "uint256",
					"name": "",
					"type": "uint256"
				},
				{
					"indexed": false,
					"internalType": "address",
					"name": "",
					"type": "address"
				},
				{
					"indexed": false,
					"internalType": "bytes32",
					"name": "",
					"type": "bytes32"
				}
			],
			"name": "evento3",
			"type": "event"
		},
		{
			"inputs": [],
			"name": "abortarFunction",
			"outputs": [],
			"stateMutability": "nonpayable",
			"type": "function"
		},
		{
			"inputs": [
				{
					"internalType": "string",
					"name": "_nombrePersona",
					"type": "string"
				}
			],
			"name": "emitir1",
			"outputs": [],
			"stateMutability": "nonpayable",
			"type": "function"
		},
		{
			"inputs": [
				{
					"internalType": "string",
					"name": "_nombrePersona",
					"type": "string"
				},
				{
					"internalType": "uint256",
					"name": "_edad",
					"type": "uint256"
				}
			],
			"name": "emitir2",
			"outputs": [],
			"stateMutability": "nonpayable",
			"type": "function"
		},
		{
			"inputs": [
				{
					"internalType": "string",
					"name": "_nombrePersona",
					"type": "string"
				},
				{
					"internalType": "uint256",
					"name": "_edad",
					"type": "uint256"
				}
			],
			"name": "emitir3",
			"outputs": [],
			"stateMutability": "nonpayable",
			"type": "function"
		}
	]
}