{
	"data": {
		"bytecode": {
			"linkReferences": {},
			"object": "608060405234801561001057600080fd5b5061040b806100206000396000f3fe608060405234801561001057600080fd5b506004361061004c5760003560e01c80630614fd7e14610051578063c8c5f21114610081578063eb57b4821461009f578063fa7f51fd146100bd575b600080fd5b61006b600480360381019061006691906101f4565b6100c7565b604051610078919061025a565b60405180910390f35b610089610158565b604051610096919061025a565b60405180910390f35b6100a76101ad565b6040516100b4919061023f565b60405180910390f35b6100c56101d6565b005b6000806001836100d79190610275565b90505b60011561014f576000600290506000600190505b828210156101265760008284610104919061032a565b14156101135760009050610126565b818061011e906102e1565b9250506100ee565b60011515811515141561013a57505061014f565b8280610145906102e1565b93505050506100da565b80915050919050565b600080600090506000600190505b60648110156101a557600060028261017e919061032a565b1461019257808261018f9190610275565b91505b808061019d906102e1565b915050610166565b819250505090565b600060056000546101be9190610275565b4210156101ce57600090506101d3565b600190505b90565b42600081905550565b6000813590506101ee816103be565b92915050565b60006020828403121561020a576102096103b9565b5b6000610218848285016101df565b91505092915050565b61022a816102cb565b82525050565b610239816102d7565b82525050565b60006020820190506102546000830184610221565b92915050565b600060208201905061026f6000830184610230565b92915050565b6000610280826102d7565b915061028b836102d7565b9250827fffffffffffffffffffffffffffffffffffffffffffffffffffffffffffffffff038211156102c0576102bf61035b565b5b828201905092915050565b60008115159050919050565b6000819050919050565b60006102ec826102d7565b91507fffffffffffffffffffffffffffffffffffffffffffffffffffffffffffffffff82141561031f5761031e61035b565b5b600182019050919050565b6000610335826102d7565b9150610340836102d7565b9250826103505761034f61038a565b5b828206905092915050565b7f4e487b7100000000000000000000000000000000000000000000000000000000600052601160045260246000fd5b7f4e487b7100000000000000000000000000000000000000000000000000000000600052601260045260246000fd5b600080fd5b6103c7816102d7565b81146103d257600080fd5b5056fea264697066735822122054122adeccca1b7703e5d0fd2e4e3d733708a5d12e76c36f03ef0e9ee796ae7b64736f6c63430008070033",
			"opcodes": "PUSH1 0x80 PUSH1 0x40 MSTORE CALLVALUE DUP1 ISZERO PUSH2 0x10 JUMPI PUSH1 0x0 DUP1 REVERT JUMPDEST POP PUSH2 0x40B DUP1 PUSH2 0x20 PUSH1 0x0 CODECOPY PUSH1 0x0 RETURN INVALID PUSH1 0x80 PUSH1 0x40 MSTORE CALLVALUE DUP1 ISZERO PUSH2 0x10 JUMPI PUSH1 0x0 DUP1 REVERT JUMPDEST POP PUSH1 0x4 CALLDATASIZE LT PUSH2 0x4C JUMPI PUSH1 0x0 CALLDATALOAD PUSH1 0xE0 SHR DUP1 PUSH4 0x614FD7E EQ PUSH2 0x51 JUMPI DUP1 PUSH4 0xC8C5F211 EQ PUSH2 0x81 JUMPI DUP1 PUSH4 0xEB57B482 EQ PUSH2 0x9F JUMPI DUP1 PUSH4 0xFA7F51FD EQ PUSH2 0xBD JUMPI JUMPDEST PUSH1 0x0 DUP1 REVERT JUMPDEST PUSH2 0x6B PUSH1 0x4 DUP1 CALLDATASIZE SUB DUP2 ADD SWAP1 PUSH2 0x66 SWAP2 SWAP1 PUSH2 0x1F4 JUMP JUMPDEST PUSH2 0xC7 JUMP JUMPDEST PUSH1 0x40 MLOAD PUSH2 0x78 SWAP2 SWAP1 PUSH2 0x25A JUMP JUMPDEST PUSH1 0x40 MLOAD DUP1 SWAP2 SUB SWAP1 RETURN JUMPDEST PUSH2 0x89 PUSH2 0x158 JUMP JUMPDEST PUSH1 0x40 MLOAD PUSH2 0x96 SWAP2 SWAP1 PUSH2 0x25A JUMP JUMPDEST PUSH1 0x40 MLOAD DUP1 SWAP2 SUB SWAP1 RETURN JUMPDEST PUSH2 0xA7 PUSH2 0x1AD JUMP JUMPDEST PUSH1 0x40 MLOAD PUSH2 0xB4 SWAP2 SWAP1 PUSH2 0x23F JUMP JUMPDEST PUSH1 0x40 MLOAD DUP1 SWAP2 SUB SWAP1 RETURN JUMPDEST PUSH2 0xC5 PUSH2 0x1D6 JUMP JUMPDEST STOP JUMPDEST PUSH1 0x0 DUP1 PUSH1 0x1 DUP4 PUSH2 0xD7 SWAP2 SWAP1 PUSH2 0x275 JUMP JUMPDEST SWAP1 POP JUMPDEST PUSH1 0x1 ISZERO PUSH2 0x14F JUMPI PUSH1 0x0 PUSH1 0x2 SWAP1 POP PUSH1 0x0 PUSH1 0x1 SWAP1 POP JUMPDEST DUP3 DUP3 LT ISZERO PUSH2 0x126 JUMPI PUSH1 0x0 DUP3 DUP5 PUSH2 0x104 SWAP2 SWAP1 PUSH2 0x32A JUMP JUMPDEST EQ ISZERO PUSH2 0x113 JUMPI PUSH1 0x0 SWAP1 POP PUSH2 0x126 JUMP JUMPDEST DUP2 DUP1 PUSH2 0x11E SWAP1 PUSH2 0x2E1 JUMP JUMPDEST SWAP3 POP POP PUSH2 0xEE JUMP JUMPDEST PUSH1 0x1 ISZERO ISZERO DUP2 ISZERO ISZERO EQ ISZERO PUSH2 0x13A JUMPI POP POP PUSH2 0x14F JUMP JUMPDEST DUP3 DUP1 PUSH2 0x145 SWAP1 PUSH2 0x2E1 JUMP JUMPDEST SWAP4 POP POP POP POP PUSH2 0xDA JUMP JUMPDEST DUP1 SWAP2 POP POP SWAP2 SWAP1 POP JUMP JUMPDEST PUSH1 0x0 DUP1 PUSH1 0x0 SWAP1 POP PUSH1 0x0 PUSH1 0x1 SWAP1 POP JUMPDEST PUSH1 0x64 DUP2 LT ISZERO PUSH2 0x1A5 JUMPI PUSH1 0x0 PUSH1 0x2 DUP3 PUSH2 0x17E SWAP2 SWAP1 PUSH2 0x32A JUMP JUMPDEST EQ PUSH2 0x192 JUMPI DUP1 DUP3 PUSH2 0x18F SWAP2 SWAP1 PUSH2 0x275 JUMP JUMPDEST SWAP2 POP JUMPDEST DUP1 DUP1 PUSH2 0x19D SWAP1 PUSH2 0x2E1 JUMP JUMPDEST SWAP2 POP POP PUSH2 0x166 JUMP JUMPDEST DUP2 SWAP3 POP POP POP SWAP1 JUMP JUMPDEST PUSH1 0x0 PUSH1 0x5 PUSH1 0x0 SLOAD PUSH2 0x1BE SWAP2 SWAP1 PUSH2 0x275 JUMP JUMPDEST TIMESTAMP LT ISZERO PUSH2 0x1CE JUMPI PUSH1 0x0 SWAP1 POP PUSH2 0x1D3 JUMP JUMPDEST PUSH1 0x1 SWAP1 POP JUMPDEST SWAP1 JUMP JUMPDEST TIMESTAMP PUSH1 0x0 DUP2 SWAP1 SSTORE POP JUMP JUMPDEST PUSH1 0x0 DUP2 CALLDATALOAD SWAP1 POP PUSH2 0x1EE DUP2 PUSH2 0x3BE JUMP JUMPDEST SWAP3 SWAP2 POP POP JUMP JUMPDEST PUSH1 0x0 PUSH1 0x20 DUP3 DUP5 SUB SLT ISZERO PUSH2 0x20A JUMPI PUSH2 0x209 PUSH2 0x3B9 JUMP JUMPDEST JUMPDEST PUSH1 0x0 PUSH2 0x218 DUP5 DUP3 DUP6 ADD PUSH2 0x1DF JUMP JUMPDEST SWAP2 POP POP SWAP3 SWAP2 POP POP JUMP JUMPDEST PUSH2 0x22A DUP2 PUSH2 0x2CB JUMP JUMPDEST DUP3 MSTORE POP POP JUMP JUMPDEST PUSH2 0x239 DUP2 PUSH2 0x2D7 JUMP JUMPDEST DUP3 MSTORE POP POP JUMP JUMPDEST PUSH1 0x0 PUSH1 0x20 DUP3 ADD SWAP1 POP PUSH2 0x254 PUSH1 0x0 DUP4 ADD DUP5 PUSH2 0x221 JUMP JUMPDEST SWAP3 SWAP2 POP POP JUMP JUMPDEST PUSH1 0x0 PUSH1 0x20 DUP3 ADD SWAP1 POP PUSH2 0x26F PUSH1 0x0 DUP4 ADD DUP5 PUSH2 0x230 JUMP JUMPDEST SWAP3 SWAP2 POP POP JUMP JUMPDEST PUSH1 0x0 PUSH2 0x280 DUP3 PUSH2 0x2D7 JUMP JUMPDEST SWAP2 POP PUSH2 0x28B DUP4 PUSH2 0x2D7 JUMP JUMPDEST SWAP3 POP DUP3 PUSH32 0xFFFFFFFFFFFFFFFFFFFFFFFFFFFFFFFFFFFFFFFFFFFFFFFFFFFFFFFFFFFFFFFF SUB DUP3 GT ISZERO PUSH2 0x2C0 JUMPI PUSH2 0x2BF PUSH2 0x35B JUMP JUMPDEST JUMPDEST DUP3 DUP3 ADD SWAP1 POP SWAP3 SWAP2 POP POP JUMP JUMPDEST PUSH1 0x0 DUP2 ISZERO ISZERO SWAP1 POP SWAP2 SWAP1 POP JUMP JUMPDEST PUSH1 0x0 DUP2 SWAP1 POP SWAP2 SWAP1 POP JUMP JUMPDEST PUSH1 0x0 PUSH2 0x2EC DUP3 PUSH2 0x2D7 JUMP JUMPDEST SWAP2 POP PUSH32 0xFFFFFFFFFFFFFFFFFFFFFFFFFFFFFFFFFFFFFFFFFFFFFFFFFFFFFFFFFFFFFFFF DUP3 EQ ISZERO PUSH2 0x31F JUMPI PUSH2 0x31E PUSH2 0x35B JUMP JUMPDEST JUMPDEST PUSH1 0x1 DUP3 ADD SWAP1 POP SWAP2 SWAP1 POP JUMP JUMPDEST PUSH1 0x0 PUSH2 0x335 DUP3 PUSH2 0x2D7 JUMP JUMPDEST SWAP2 POP PUSH2 0x340 DUP4 PUSH2 0x2D7 JUMP JUMPDEST SWAP3 POP DUP3 PUSH2 0x350 JUMPI PUSH2 0x34F PUSH2 0x38A JUMP JUMPDEST JUMPDEST DUP3 DUP3 MOD SWAP1 POP SWAP3 SWAP2 POP POP JUMP JUMPDEST PUSH32 0x4E487B7100000000000000000000000000000000000000000000000000000000 PUSH1 0x0 MSTORE PUSH1 0x11 PUSH1 0x4 MSTORE PUSH1 0x24 PUSH1 0x0 REVERT JUMPDEST PUSH32 0x4E487B7100000000000000000000000000000000000000000000000000000000 PUSH1 0x0 MSTORE PUSH1 0x12 PUSH1 0x4 MSTORE PUSH1 0x24 PUSH1 0x0 REVERT JUMPDEST PUSH1 0x0 DUP1 REVERT JUMPDEST PUSH2 0x3C7 DUP2 PUSH2 0x2D7 JUMP JUMPDEST DUP2 EQ PUSH2 0x3D2 JUMPI PUSH1 0x0 DUP1 REVERT JUMPDEST POP JUMP INVALID LOG2 PUSH5 0x6970667358 0x22 SLT KECCAK256 SLOAD SLT 0x2A 0xDE 0xCC 0xCA SHL PUSH24 0x3E5D0FD2E4E3D733708A5D12E76C36F03EF0E9EE796AE7B PUSH5 0x736F6C6343 STOP ADDMOD SMOD STOP CALLER "
		},
		"gasEstimates": {
			"creation": {
				"codeDepositCost": "207000",
				"executionCost": "251",
				"totalCost": "207251"
			},
			"external": {
				"espera()": "infinite",
				"fijarTiempo()": "22301",
				"siguientePrimo(uint256)": "infinite",
				"suma_impares()": "infinite"
			}
		},
		"methodIdentifiers": {
			"espera()": "eb57b482",
			"fijarTiempo()": "fa7f51fd",
			"siguientePrimo(uint256)": "0614fd7e",
			"suma_impares()": "c8c5f211"
		}
	},
	"abi": [
		{
			"inputs": [],
			"name": "espera",
			"outputs": [
				{
					"internalType": "bool",
					"name": "",
					"type": "bool"
				}
			],
			"stateMutability": "view",
			"type": "function"
		},
		{
			"inputs": [],
			"name": "fijarTiempo",
			"outputs": [],
			"stateMutability": "nonpayable",
			"type": "function"
		},
		{
			"inputs": [
				{
					"internalType": "uint256",
					"name": "_p",
					"type": "uint256"
				}
			],
			"name": "siguientePrimo",
			"outputs": [
				{
					"internalType": "uint256",
					"name": "",
					"type": "uint256"
				}
			],
			"stateMutability": "pure",
			"type": "function"
		},
		{
			"inputs": [],
			"name": "suma_impares",
			"outputs": [
				{
					"internalType": "uint256",
					"name": "",
					"type": "uint256"
				}
			],
			"stateMutability": "pure",
			"type": "function"
		}
	]
}