{
	"data": {
		"bytecode": {
			"linkReferences": {},
			"object": "608060405234801561001057600080fd5b506109ab806100206000396000f3fe608060405234801561001057600080fd5b506004361061004c5760003560e01c806337eddd171461005157806379ac27d4146100815780637d825142146100b1578063ce3fe641146100e1575b600080fd5b61006b60048036038101906100669190610471565b610111565b60405161007891906105e5565b60405180910390f35b61009b60048036038101906100969190610471565b610134565b6040516100a891906105e5565b60405180910390f35b6100cb60048036038101906100c691906103fb565b61017d565b6040516100d89190610622565b60405180910390f35b6100fb60048036038101906100f69190610428565b6101a7565b6040516101089190610600565b60405180910390f35b6000806064831415610126576001905061012b565b600090505b80915050919050565b6000806000600284610146919061074d565b148015610154575060648310155b801561016157506103e783105b1561016f5760019050610174565b600090505b80915050919050565b600080600083121561019a57826101939061077e565b905061019e565b8290505b80915050919050565b6060806040516020016101b9906105d0565b60405160208183030381529060405280519060200120836040516020016101e0919061058f565b604051602081830303815290604052805190602001201415610239576040518060400160405280601f81526020017f48617320766f7461646f20636f7272656374616d656e74652061204a6f616e008152509050610358565b604051602001610248906105bb565b604051602081830303815290604052805190602001208360405160200161026f919061058f565b6040516020818303038152906040528051906020012014156102ab57604051806060016040528060228152602001610923602291399050610357565b6040516020016102ba906105a6565b60405160208183030381529060405280519060200120836040516020016102e1919061058f565b60405160208183030381529060405280519060200120141561033a576040518060400160405280602081526020017f48617320766f7461646f20636f7272656374616d656e74652061204d617269618152509050610356565b6040518060600160405280603181526020016109456031913990505b5b5b80915050919050565b600061037461036f84610662565b61063d565b9050828152602081018484840111156103905761038f610859565b5b61039b8482856106da565b509392505050565b6000813590506103b2816108f4565b92915050565b600082601f8301126103cd576103cc610854565b5b81356103dd848260208601610361565b91505092915050565b6000813590506103f58161090b565b92915050565b60006020828403121561041157610410610863565b5b600061041f848285016103a3565b91505092915050565b60006020828403121561043e5761043d610863565b5b600082013567ffffffffffffffff81111561045c5761045b61085e565b5b610468848285016103b8565b91505092915050565b60006020828403121561048757610486610863565b5b6000610495848285016103e6565b91505092915050565b6104a7816106ba565b82525050565b60006104b882610693565b6104c2818561069e565b93506104d28185602086016106e9565b6104db81610868565b840191505092915050565b60006104f182610693565b6104fb81856106af565b935061050b8185602086016106e9565b80840191505092915050565b60006105246005836106af565b915061052f82610879565b600582019050919050565b60006105476007836106af565b9150610552826108a2565b600782019050919050565b600061056a6004836106af565b9150610575826108cb565b600482019050919050565b610589816106d0565b82525050565b600061059b82846104e6565b915081905092915050565b60006105b182610517565b9150819050919050565b60006105c68261053a565b9150819050919050565b60006105db8261055d565b9150819050919050565b60006020820190506105fa600083018461049e565b92915050565b6000602082019050818103600083015261061a81846104ad565b905092915050565b60006020820190506106376000830184610580565b92915050565b6000610647610658565b9050610653828261071c565b919050565b6000604051905090565b600067ffffffffffffffff82111561067d5761067c610825565b5b61068682610868565b9050602081019050919050565b600081519050919050565b600082825260208201905092915050565b600081905092915050565b60008115159050919050565b6000819050919050565b6000819050919050565b82818337600083830152505050565b60005b838110156107075780820151818401526020810190506106ec565b83811115610716576000848401525b50505050565b61072582610868565b810181811067ffffffffffffffff8211171561074457610743610825565b5b80604052505050565b6000610758826106d0565b9150610763836106d0565b925082610773576107726107f6565b5b828206905092915050565b6000610789826106c6565b91507f80000000000000000000000000000000000000000000000000000000000000008214156107bc576107bb6107c7565b5b816000039050919050565b7f4e487b7100000000000000000000000000000000000000000000000000000000600052601160045260246000fd5b7f4e487b7100000000000000000000000000000000000000000000000000000000600052601260045260246000fd5b7f4e487b7100000000000000000000000000000000000000000000000000000000600052604160045260246000fd5b600080fd5b600080fd5b600080fd5b600080fd5b6000601f19601f8301169050919050565b7f4d61726961000000000000000000000000000000000000000000000000000000600082015250565b7f4761627269656c00000000000000000000000000000000000000000000000000600082015250565b7f4a6f616e00000000000000000000000000000000000000000000000000000000600082015250565b6108fd816106c6565b811461090857600080fd5b50565b610914816106d0565b811461091f57600080fd5b5056fe48617320766f7461646f20636f7272656374616d656e74652061204761627269656c48617320766f7461646f206120756e2063616e64696461746f20717565206e6f206573746120656e206c61206c69737461a2646970667358221220961f2d11dac0f169779947747adc43f4cfc71964eec20f03c5d9dd3adc641a8164736f6c63430008070033",
			"opcodes": "PUSH1 0x80 PUSH1 0x40 MSTORE CALLVALUE DUP1 ISZERO PUSH2 0x10 JUMPI PUSH1 0x0 DUP1 REVERT JUMPDEST POP PUSH2 0x9AB DUP1 PUSH2 0x20 PUSH1 0x0 CODECOPY PUSH1 0x0 RETURN INVALID PUSH1 0x80 PUSH1 0x40 MSTORE CALLVALUE DUP1 ISZERO PUSH2 0x10 JUMPI PUSH1 0x0 DUP1 REVERT JUMPDEST POP PUSH1 0x4 CALLDATASIZE LT PUSH2 0x4C JUMPI PUSH1 0x0 CALLDATALOAD PUSH1 0xE0 SHR DUP1 PUSH4 0x37EDDD17 EQ PUSH2 0x51 JUMPI DUP1 PUSH4 0x79AC27D4 EQ PUSH2 0x81 JUMPI DUP1 PUSH4 0x7D825142 EQ PUSH2 0xB1 JUMPI DUP1 PUSH4 0xCE3FE641 EQ PUSH2 0xE1 JUMPI JUMPDEST PUSH1 0x0 DUP1 REVERT JUMPDEST PUSH2 0x6B PUSH1 0x4 DUP1 CALLDATASIZE SUB DUP2 ADD SWAP1 PUSH2 0x66 SWAP2 SWAP1 PUSH2 0x471 JUMP JUMPDEST PUSH2 0x111 JUMP JUMPDEST PUSH1 0x40 MLOAD PUSH2 0x78 SWAP2 SWAP1 PUSH2 0x5E5 JUMP JUMPDEST PUSH1 0x40 MLOAD DUP1 SWAP2 SUB SWAP1 RETURN JUMPDEST PUSH2 0x9B PUSH1 0x4 DUP1 CALLDATASIZE SUB DUP2 ADD SWAP1 PUSH2 0x96 SWAP2 SWAP1 PUSH2 0x471 JUMP JUMPDEST PUSH2 0x134 JUMP JUMPDEST PUSH1 0x40 MLOAD PUSH2 0xA8 SWAP2 SWAP1 PUSH2 0x5E5 JUMP JUMPDEST PUSH1 0x40 MLOAD DUP1 SWAP2 SUB SWAP1 RETURN JUMPDEST PUSH2 0xCB PUSH1 0x4 DUP1 CALLDATASIZE SUB DUP2 ADD SWAP1 PUSH2 0xC6 SWAP2 SWAP1 PUSH2 0x3FB JUMP JUMPDEST PUSH2 0x17D JUMP JUMPDEST PUSH1 0x40 MLOAD PUSH2 0xD8 SWAP2 SWAP1 PUSH2 0x622 JUMP JUMPDEST PUSH1 0x40 MLOAD DUP1 SWAP2 SUB SWAP1 RETURN JUMPDEST PUSH2 0xFB PUSH1 0x4 DUP1 CALLDATASIZE SUB DUP2 ADD SWAP1 PUSH2 0xF6 SWAP2 SWAP1 PUSH2 0x428 JUMP JUMPDEST PUSH2 0x1A7 JUMP JUMPDEST PUSH1 0x40 MLOAD PUSH2 0x108 SWAP2 SWAP1 PUSH2 0x600 JUMP JUMPDEST PUSH1 0x40 MLOAD DUP1 SWAP2 SUB SWAP1 RETURN JUMPDEST PUSH1 0x0 DUP1 PUSH1 0x64 DUP4 EQ ISZERO PUSH2 0x126 JUMPI PUSH1 0x1 SWAP1 POP PUSH2 0x12B JUMP JUMPDEST PUSH1 0x0 SWAP1 POP JUMPDEST DUP1 SWAP2 POP POP SWAP2 SWAP1 POP JUMP JUMPDEST PUSH1 0x0 DUP1 PUSH1 0x0 PUSH1 0x2 DUP5 PUSH2 0x146 SWAP2 SWAP1 PUSH2 0x74D JUMP JUMPDEST EQ DUP1 ISZERO PUSH2 0x154 JUMPI POP PUSH1 0x64 DUP4 LT ISZERO JUMPDEST DUP1 ISZERO PUSH2 0x161 JUMPI POP PUSH2 0x3E7 DUP4 LT JUMPDEST ISZERO PUSH2 0x16F JUMPI PUSH1 0x1 SWAP1 POP PUSH2 0x174 JUMP JUMPDEST PUSH1 0x0 SWAP1 POP JUMPDEST DUP1 SWAP2 POP POP SWAP2 SWAP1 POP JUMP JUMPDEST PUSH1 0x0 DUP1 PUSH1 0x0 DUP4 SLT ISZERO PUSH2 0x19A JUMPI DUP3 PUSH2 0x193 SWAP1 PUSH2 0x77E JUMP JUMPDEST SWAP1 POP PUSH2 0x19E JUMP JUMPDEST DUP3 SWAP1 POP JUMPDEST DUP1 SWAP2 POP POP SWAP2 SWAP1 POP JUMP JUMPDEST PUSH1 0x60 DUP1 PUSH1 0x40 MLOAD PUSH1 0x20 ADD PUSH2 0x1B9 SWAP1 PUSH2 0x5D0 JUMP JUMPDEST PUSH1 0x40 MLOAD PUSH1 0x20 DUP2 DUP4 SUB SUB DUP2 MSTORE SWAP1 PUSH1 0x40 MSTORE DUP1 MLOAD SWAP1 PUSH1 0x20 ADD KECCAK256 DUP4 PUSH1 0x40 MLOAD PUSH1 0x20 ADD PUSH2 0x1E0 SWAP2 SWAP1 PUSH2 0x58F JUMP JUMPDEST PUSH1 0x40 MLOAD PUSH1 0x20 DUP2 DUP4 SUB SUB DUP2 MSTORE SWAP1 PUSH1 0x40 MSTORE DUP1 MLOAD SWAP1 PUSH1 0x20 ADD KECCAK256 EQ ISZERO PUSH2 0x239 JUMPI PUSH1 0x40 MLOAD DUP1 PUSH1 0x40 ADD PUSH1 0x40 MSTORE DUP1 PUSH1 0x1F DUP2 MSTORE PUSH1 0x20 ADD PUSH32 0x48617320766F7461646F20636F7272656374616D656E74652061204A6F616E00 DUP2 MSTORE POP SWAP1 POP PUSH2 0x358 JUMP JUMPDEST PUSH1 0x40 MLOAD PUSH1 0x20 ADD PUSH2 0x248 SWAP1 PUSH2 0x5BB JUMP JUMPDEST PUSH1 0x40 MLOAD PUSH1 0x20 DUP2 DUP4 SUB SUB DUP2 MSTORE SWAP1 PUSH1 0x40 MSTORE DUP1 MLOAD SWAP1 PUSH1 0x20 ADD KECCAK256 DUP4 PUSH1 0x40 MLOAD PUSH1 0x20 ADD PUSH2 0x26F SWAP2 SWAP1 PUSH2 0x58F JUMP JUMPDEST PUSH1 0x40 MLOAD PUSH1 0x20 DUP2 DUP4 SUB SUB DUP2 MSTORE SWAP1 PUSH1 0x40 MSTORE DUP1 MLOAD SWAP1 PUSH1 0x20 ADD KECCAK256 EQ ISZERO PUSH2 0x2AB JUMPI PUSH1 0x40 MLOAD DUP1 PUSH1 0x60 ADD PUSH1 0x40 MSTORE DUP1 PUSH1 0x22 DUP2 MSTORE PUSH1 0x20 ADD PUSH2 0x923 PUSH1 0x22 SWAP2 CODECOPY SWAP1 POP PUSH2 0x357 JUMP JUMPDEST PUSH1 0x40 MLOAD PUSH1 0x20 ADD PUSH2 0x2BA SWAP1 PUSH2 0x5A6 JUMP JUMPDEST PUSH1 0x40 MLOAD PUSH1 0x20 DUP2 DUP4 SUB SUB DUP2 MSTORE SWAP1 PUSH1 0x40 MSTORE DUP1 MLOAD SWAP1 PUSH1 0x20 ADD KECCAK256 DUP4 PUSH1 0x40 MLOAD PUSH1 0x20 ADD PUSH2 0x2E1 SWAP2 SWAP1 PUSH2 0x58F JUMP JUMPDEST PUSH1 0x40 MLOAD PUSH1 0x20 DUP2 DUP4 SUB SUB DUP2 MSTORE SWAP1 PUSH1 0x40 MSTORE DUP1 MLOAD SWAP1 PUSH1 0x20 ADD KECCAK256 EQ ISZERO PUSH2 0x33A JUMPI PUSH1 0x40 MLOAD DUP1 PUSH1 0x40 ADD PUSH1 0x40 MSTORE DUP1 PUSH1 0x20 DUP2 MSTORE PUSH1 0x20 ADD PUSH32 0x48617320766F7461646F20636F7272656374616D656E74652061204D61726961 DUP2 MSTORE POP SWAP1 POP PUSH2 0x356 JUMP JUMPDEST PUSH1 0x40 MLOAD DUP1 PUSH1 0x60 ADD PUSH1 0x40 MSTORE DUP1 PUSH1 0x31 DUP2 MSTORE PUSH1 0x20 ADD PUSH2 0x945 PUSH1 0x31 SWAP2 CODECOPY SWAP1 POP JUMPDEST JUMPDEST JUMPDEST DUP1 SWAP2 POP POP SWAP2 SWAP1 POP JUMP JUMPDEST PUSH1 0x0 PUSH2 0x374 PUSH2 0x36F DUP5 PUSH2 0x662 JUMP JUMPDEST PUSH2 0x63D JUMP JUMPDEST SWAP1 POP DUP3 DUP2 MSTORE PUSH1 0x20 DUP2 ADD DUP5 DUP5 DUP5 ADD GT ISZERO PUSH2 0x390 JUMPI PUSH2 0x38F PUSH2 0x859 JUMP JUMPDEST JUMPDEST PUSH2 0x39B DUP5 DUP3 DUP6 PUSH2 0x6DA JUMP JUMPDEST POP SWAP4 SWAP3 POP POP POP JUMP JUMPDEST PUSH1 0x0 DUP2 CALLDATALOAD SWAP1 POP PUSH2 0x3B2 DUP2 PUSH2 0x8F4 JUMP JUMPDEST SWAP3 SWAP2 POP POP JUMP JUMPDEST PUSH1 0x0 DUP3 PUSH1 0x1F DUP4 ADD SLT PUSH2 0x3CD JUMPI PUSH2 0x3CC PUSH2 0x854 JUMP JUMPDEST JUMPDEST DUP2 CALLDATALOAD PUSH2 0x3DD DUP5 DUP3 PUSH1 0x20 DUP7 ADD PUSH2 0x361 JUMP JUMPDEST SWAP2 POP POP SWAP3 SWAP2 POP POP JUMP JUMPDEST PUSH1 0x0 DUP2 CALLDATALOAD SWAP1 POP PUSH2 0x3F5 DUP2 PUSH2 0x90B JUMP JUMPDEST SWAP3 SWAP2 POP POP JUMP JUMPDEST PUSH1 0x0 PUSH1 0x20 DUP3 DUP5 SUB SLT ISZERO PUSH2 0x411 JUMPI PUSH2 0x410 PUSH2 0x863 JUMP JUMPDEST JUMPDEST PUSH1 0x0 PUSH2 0x41F DUP5 DUP3 DUP6 ADD PUSH2 0x3A3 JUMP JUMPDEST SWAP2 POP POP SWAP3 SWAP2 POP POP JUMP JUMPDEST PUSH1 0x0 PUSH1 0x20 DUP3 DUP5 SUB SLT ISZERO PUSH2 0x43E JUMPI PUSH2 0x43D PUSH2 0x863 JUMP JUMPDEST JUMPDEST PUSH1 0x0 DUP3 ADD CALLDATALOAD PUSH8 0xFFFFFFFFFFFFFFFF DUP2 GT ISZERO PUSH2 0x45C JUMPI PUSH2 0x45B PUSH2 0x85E JUMP JUMPDEST JUMPDEST PUSH2 0x468 DUP5 DUP3 DUP6 ADD PUSH2 0x3B8 JUMP JUMPDEST SWAP2 POP POP SWAP3 SWAP2 POP POP JUMP JUMPDEST PUSH1 0x0 PUSH1 0x20 DUP3 DUP5 SUB SLT ISZERO PUSH2 0x487 JUMPI PUSH2 0x486 PUSH2 0x863 JUMP JUMPDEST JUMPDEST PUSH1 0x0 PUSH2 0x495 DUP5 DUP3 DUP6 ADD PUSH2 0x3E6 JUMP JUMPDEST SWAP2 POP POP SWAP3 SWAP2 POP POP JUMP JUMPDEST PUSH2 0x4A7 DUP2 PUSH2 0x6BA JUMP JUMPDEST DUP3 MSTORE POP POP JUMP JUMPDEST PUSH1 0x0 PUSH2 0x4B8 DUP3 PUSH2 0x693 JUMP JUMPDEST PUSH2 0x4C2 DUP2 DUP6 PUSH2 0x69E JUMP JUMPDEST SWAP4 POP PUSH2 0x4D2 DUP2 DUP6 PUSH1 0x20 DUP7 ADD PUSH2 0x6E9 JUMP JUMPDEST PUSH2 0x4DB DUP2 PUSH2 0x868 JUMP JUMPDEST DUP5 ADD SWAP2 POP POP SWAP3 SWAP2 POP POP JUMP JUMPDEST PUSH1 0x0 PUSH2 0x4F1 DUP3 PUSH2 0x693 JUMP JUMPDEST PUSH2 0x4FB DUP2 DUP6 PUSH2 0x6AF JUMP JUMPDEST SWAP4 POP PUSH2 0x50B DUP2 DUP6 PUSH1 0x20 DUP7 ADD PUSH2 0x6E9 JUMP JUMPDEST DUP1 DUP5 ADD SWAP2 POP POP SWAP3 SWAP2 POP POP JUMP JUMPDEST PUSH1 0x0 PUSH2 0x524 PUSH1 0x5 DUP4 PUSH2 0x6AF JUMP JUMPDEST SWAP2 POP PUSH2 0x52F DUP3 PUSH2 0x879 JUMP JUMPDEST PUSH1 0x5 DUP3 ADD SWAP1 POP SWAP2 SWAP1 POP JUMP JUMPDEST PUSH1 0x0 PUSH2 0x547 PUSH1 0x7 DUP4 PUSH2 0x6AF JUMP JUMPDEST SWAP2 POP PUSH2 0x552 DUP3 PUSH2 0x8A2 JUMP JUMPDEST PUSH1 0x7 DUP3 ADD SWAP1 POP SWAP2 SWAP1 POP JUMP JUMPDEST PUSH1 0x0 PUSH2 0x56A PUSH1 0x4 DUP4 PUSH2 0x6AF JUMP JUMPDEST SWAP2 POP PUSH2 0x575 DUP3 PUSH2 0x8CB JUMP JUMPDEST PUSH1 0x4 DUP3 ADD SWAP1 POP SWAP2 SWAP1 POP JUMP JUMPDEST PUSH2 0x589 DUP2 PUSH2 0x6D0 JUMP JUMPDEST DUP3 MSTORE POP POP JUMP JUMPDEST PUSH1 0x0 PUSH2 0x59B DUP3 DUP5 PUSH2 0x4E6 JUMP JUMPDEST SWAP2 POP DUP2 SWAP1 POP SWAP3 SWAP2 POP POP JUMP JUMPDEST PUSH1 0x0 PUSH2 0x5B1 DUP3 PUSH2 0x517 JUMP JUMPDEST SWAP2 POP DUP2 SWAP1 POP SWAP2 SWAP1 POP JUMP JUMPDEST PUSH1 0x0 PUSH2 0x5C6 DUP3 PUSH2 0x53A JUMP JUMPDEST SWAP2 POP DUP2 SWAP1 POP SWAP2 SWAP1 POP JUMP JUMPDEST PUSH1 0x0 PUSH2 0x5DB DUP3 PUSH2 0x55D JUMP JUMPDEST SWAP2 POP DUP2 SWAP1 POP SWAP2 SWAP1 POP JUMP JUMPDEST PUSH1 0x0 PUSH1 0x20 DUP3 ADD SWAP1 POP PUSH2 0x5FA PUSH1 0x0 DUP4 ADD DUP5 PUSH2 0x49E JUMP JUMPDEST SWAP3 SWAP2 POP POP JUMP JUMPDEST PUSH1 0x0 PUSH1 0x20 DUP3 ADD SWAP1 POP DUP2 DUP2 SUB PUSH1 0x0 DUP4 ADD MSTORE PUSH2 0x61A DUP2 DUP5 PUSH2 0x4AD JUMP JUMPDEST SWAP1 POP SWAP3 SWAP2 POP POP JUMP JUMPDEST PUSH1 0x0 PUSH1 0x20 DUP3 ADD SWAP1 POP PUSH2 0x637 PUSH1 0x0 DUP4 ADD DUP5 PUSH2 0x580 JUMP JUMPDEST SWAP3 SWAP2 POP POP JUMP JUMPDEST PUSH1 0x0 PUSH2 0x647 PUSH2 0x658 JUMP JUMPDEST SWAP1 POP PUSH2 0x653 DUP3 DUP3 PUSH2 0x71C JUMP JUMPDEST SWAP2 SWAP1 POP JUMP JUMPDEST PUSH1 0x0 PUSH1 0x40 MLOAD SWAP1 POP SWAP1 JUMP JUMPDEST PUSH1 0x0 PUSH8 0xFFFFFFFFFFFFFFFF DUP3 GT ISZERO PUSH2 0x67D JUMPI PUSH2 0x67C PUSH2 0x825 JUMP JUMPDEST JUMPDEST PUSH2 0x686 DUP3 PUSH2 0x868 JUMP JUMPDEST SWAP1 POP PUSH1 0x20 DUP2 ADD SWAP1 POP SWAP2 SWAP1 POP JUMP JUMPDEST PUSH1 0x0 DUP2 MLOAD SWAP1 POP SWAP2 SWAP1 POP JUMP JUMPDEST PUSH1 0x0 DUP3 DUP3 MSTORE PUSH1 0x20 DUP3 ADD SWAP1 POP SWAP3 SWAP2 POP POP JUMP JUMPDEST PUSH1 0x0 DUP2 SWAP1 POP SWAP3 SWAP2 POP POP JUMP JUMPDEST PUSH1 0x0 DUP2 ISZERO ISZERO SWAP1 POP SWAP2 SWAP1 POP JUMP JUMPDEST PUSH1 0x0 DUP2 SWAP1 POP SWAP2 SWAP1 POP JUMP JUMPDEST PUSH1 0x0 DUP2 SWAP1 POP SWAP2 SWAP1 POP JUMP JUMPDEST DUP3 DUP2 DUP4 CALLDATACOPY PUSH1 0x0 DUP4 DUP4 ADD MSTORE POP POP POP JUMP JUMPDEST PUSH1 0x0 JUMPDEST DUP4 DUP2 LT ISZERO PUSH2 0x707 JUMPI DUP1 DUP3 ADD MLOAD DUP2 DUP5 ADD MSTORE PUSH1 0x20 DUP2 ADD SWAP1 POP PUSH2 0x6EC JUMP JUMPDEST DUP4 DUP2 GT ISZERO PUSH2 0x716 JUMPI PUSH1 0x0 DUP5 DUP5 ADD MSTORE JUMPDEST POP POP POP POP JUMP JUMPDEST PUSH2 0x725 DUP3 PUSH2 0x868 JUMP JUMPDEST DUP2 ADD DUP2 DUP2 LT PUSH8 0xFFFFFFFFFFFFFFFF DUP3 GT OR ISZERO PUSH2 0x744 JUMPI PUSH2 0x743 PUSH2 0x825 JUMP JUMPDEST JUMPDEST DUP1 PUSH1 0x40 MSTORE POP POP POP JUMP JUMPDEST PUSH1 0x0 PUSH2 0x758 DUP3 PUSH2 0x6D0 JUMP JUMPDEST SWAP2 POP PUSH2 0x763 DUP4 PUSH2 0x6D0 JUMP JUMPDEST SWAP3 POP DUP3 PUSH2 0x773 JUMPI PUSH2 0x772 PUSH2 0x7F6 JUMP JUMPDEST JUMPDEST DUP3 DUP3 MOD SWAP1 POP SWAP3 SWAP2 POP POP JUMP JUMPDEST PUSH1 0x0 PUSH2 0x789 DUP3 PUSH2 0x6C6 JUMP JUMPDEST SWAP2 POP PUSH32 0x8000000000000000000000000000000000000000000000000000000000000000 DUP3 EQ ISZERO PUSH2 0x7BC JUMPI PUSH2 0x7BB PUSH2 0x7C7 JUMP JUMPDEST JUMPDEST DUP2 PUSH1 0x0 SUB SWAP1 POP SWAP2 SWAP1 POP JUMP JUMPDEST PUSH32 0x4E487B7100000000000000000000000000000000000000000000000000000000 PUSH1 0x0 MSTORE PUSH1 0x11 PUSH1 0x4 MSTORE PUSH1 0x24 PUSH1 0x0 REVERT JUMPDEST PUSH32 0x4E487B7100000000000000000000000000000000000000000000000000000000 PUSH1 0x0 MSTORE PUSH1 0x12 PUSH1 0x4 MSTORE PUSH1 0x24 PUSH1 0x0 REVERT JUMPDEST PUSH32 0x4E487B7100000000000000000000000000000000000000000000000000000000 PUSH1 0x0 MSTORE PUSH1 0x41 PUSH1 0x4 MSTORE PUSH1 0x24 PUSH1 0x0 REVERT JUMPDEST PUSH1 0x0 DUP1 REVERT JUMPDEST PUSH1 0x0 DUP1 REVERT JUMPDEST PUSH1 0x0 DUP1 REVERT JUMPDEST PUSH1 0x0 DUP1 REVERT JUMPDEST PUSH1 0x0 PUSH1 0x1F NOT PUSH1 0x1F DUP4 ADD AND SWAP1 POP SWAP2 SWAP1 POP JUMP JUMPDEST PUSH32 0x4D61726961000000000000000000000000000000000000000000000000000000 PUSH1 0x0 DUP3 ADD MSTORE POP JUMP JUMPDEST PUSH32 0x4761627269656C00000000000000000000000000000000000000000000000000 PUSH1 0x0 DUP3 ADD MSTORE POP JUMP JUMPDEST PUSH32 0x4A6F616E00000000000000000000000000000000000000000000000000000000 PUSH1 0x0 DUP3 ADD MSTORE POP JUMP JUMPDEST PUSH2 0x8FD DUP2 PUSH2 0x6C6 JUMP JUMPDEST DUP2 EQ PUSH2 0x908 JUMPI PUSH1 0x0 DUP1 REVERT JUMPDEST POP JUMP JUMPDEST PUSH2 0x914 DUP2 PUSH2 0x6D0 JUMP JUMPDEST DUP2 EQ PUSH2 0x91F JUMPI PUSH1 0x0 DUP1 REVERT JUMPDEST POP JUMP INVALID BASEFEE PUSH2 0x7320 PUSH23 0x6F7461646F20636F7272656374616D656E746520612047 PUSH2 0x6272 PUSH10 0x656C48617320766F7461 PUSH5 0x6F20612075 PUSH15 0x2063616E64696461746F2071756520 PUSH15 0x6F206573746120656E206C61206C69 PUSH20 0x7461A2646970667358221220961F2D11DAC0F169 PUSH24 0x9947747ADC43F4CFC71964EEC20F03C5D9DD3ADC641A8164 PUSH20 0x6F6C634300080700330000000000000000000000 "
		},
		"gasEstimates": {
			"creation": {
				"codeDepositCost": "495000",
				"executionCost": "530",
				"totalCost": "495530"
			},
			"external": {
				"parTresCifras(uint256)": "infinite",
				"probarSuerte(uint256)": "636",
				"valorAbsoluto(int256)": "infinite",
				"votar(string)": "infinite"
			}
		},
		"methodIdentifiers": {
			"parTresCifras(uint256)": "79ac27d4",
			"probarSuerte(uint256)": "37eddd17",
			"valorAbsoluto(int256)": "7d825142",
			"votar(string)": "ce3fe641"
		}
	},
	"abi": [
		{
			"inputs": [
				{
					"internalType": "uint256",
					"name": "_numero",
					"type": "uint256"
				}
			],
			"name": "parTresCifras",
			"outputs": [
				{
					"internalType": "bool",
					"name": "",
					"type": "bool"
				}
			],
			"stateMutability": "pure",
			"type": "function"
		},
		{
			"inputs": [
				{
					"internalType": "uint256",
					"name": "_numero",
					"type": "uint256"
				}
			],
			"name": "probarSuerte",
			"outputs": [
				{
					"internalType": "bool",
					"name": "",
					"type": "bool"
				}
			],
			"stateMutability": "pure",
			"type": "function"
		},
		{
			"inputs": [
				{
					"internalType": "int256",
					"name": "_k",
					"type": "int256"
				}
			],
			"name": "valorAbsoluto",
			"outputs": [
				{
					"internalType": "uint256",
					"name": "",
					"type": "uint256"
				}
			],
			"stateMutability": "pure",
			"type": "function"
		},
		{
			"inputs": [
				{
					"internalType": "string",
					"name": "_candidato",
					"type": "string"
				}
			],
			"name": "votar",
			"outputs": [
				{
					"internalType": "string",
					"name": "",
					"type": "string"
				}
			],
			"stateMutability": "pure",
			"type": "function"
		}
	]
}